{
  "contractName": "User",
  "abi": [
    {
      "inputs": [
        {
          "internalType": "address",
          "name": "_employeeAddress",
          "type": "address"
        },
        {
          "internalType": "string",
          "name": "_employeeName",
          "type": "string"
        }
      ],
      "name": "addEmployee",
      "outputs": [],
      "stateMutability": "nonpayable",
      "type": "function"
    },
    {
      "inputs": [
        {
          "internalType": "address",
          "name": "_employeeAddress",
          "type": "address"
        }
      ],
      "name": "changeAccess",
      "outputs": [],
      "stateMutability": "nonpayable",
      "type": "function"
    },
    {
      "inputs": [
        {
          "internalType": "uint8",
          "name": "_courseId",
          "type": "uint8"
        }
      ],
      "name": "completeCourse",
      "outputs": [
        {
          "internalType": "string",
          "name": "courseUrl",
          "type": "string"
        }
      ],
      "stateMutability": "nonpayable",
      "type": "function"
    },
    {
      "inputs": [
        {
          "internalType": "string",
          "name": "_name",
          "type": "string"
        },
        {
          "internalType": "string",
          "name": "_desc",
          "type": "string"
        },
        {
          "internalType": "string",
          "name": "_url",
          "type": "string"
        },
        {
          "internalType": "uint8",
          "name": "_bounty",
          "type": "uint8"
        }
      ],
      "name": "createCourse",
      "outputs": [],
      "stateMutability": "nonpayable",
      "type": "function"
    },
    {
      "inputs": [
        {
          "internalType": "string",
          "name": "username",
          "type": "string"
        }
      ],
      "name": "createEmployer",
      "outputs": [],
      "stateMutability": "nonpayable",
      "type": "function"
    },
    {
      "inputs": [
        {
          "internalType": "address",
          "name": "_employeeAddress",
          "type": "address"
        }
      ],
      "name": "deleteEmployee",
      "outputs": [],
      "stateMutability": "nonpayable",
      "type": "function"
    },
    {
      "inputs": [],
      "name": "fetchCompletedCourses",
      "outputs": [
        {
          "components": [
            {
              "internalType": "uint8",
              "name": "id",
              "type": "uint8"
            },
            {
              "internalType": "string",
              "name": "name",
              "type": "string"
            },
            {
              "internalType": "string",
              "name": "desc",
              "type": "string"
            },
            {
              "internalType": "address",
              "name": "owner",
              "type": "address"
            },
            {
              "internalType": "string",
              "name": "url",
              "type": "string"
            },
            {
              "internalType": "uint8",
              "name": "bounty",
              "type": "uint8"
            }
          ],
          "internalType": "struct User.Course[]",
          "name": "",
          "type": "tuple[]"
        }
      ],
      "stateMutability": "view",
      "type": "function"
    },
    {
      "inputs": [],
      "name": "fetchCourses",
      "outputs": [
        {
          "components": [
            {
              "internalType": "uint8",
              "name": "id",
              "type": "uint8"
            },
            {
              "internalType": "string",
              "name": "name",
              "type": "string"
            },
            {
              "internalType": "string",
              "name": "desc",
              "type": "string"
            },
            {
              "internalType": "address",
              "name": "owner",
              "type": "address"
            },
            {
              "internalType": "string",
              "name": "url",
              "type": "string"
            },
            {
              "internalType": "uint8",
              "name": "bounty",
              "type": "uint8"
            }
          ],
          "internalType": "struct User.Course[]",
          "name": "courseList",
          "type": "tuple[]"
        }
      ],
      "stateMutability": "view",
      "type": "function"
    },
    {
      "inputs": [],
      "name": "fetchEmployees",
      "outputs": [
        {
          "components": [
            {
              "internalType": "address",
              "name": "_address",
              "type": "address"
            },
            {
              "internalType": "string",
              "name": "username",
              "type": "string"
            },
            {
              "internalType": "enum User.Access",
              "name": "access",
              "type": "uint8"
            },
            {
              "internalType": "uint8",
              "name": "_totalBounty",
              "type": "uint8"
            },
            {
              "internalType": "bool",
              "name": "_isActive",
              "type": "bool"
            }
          ],
          "internalType": "struct User.Employee[]",
          "name": "",
          "type": "tuple[]"
        }
      ],
      "stateMutability": "view",
      "type": "function"
    },
    {
      "inputs": [],
      "name": "fetchIncompleteCourses",
      "outputs": [
        {
          "components": [
            {
              "internalType": "uint8",
              "name": "id",
              "type": "uint8"
            },
            {
              "internalType": "string",
              "name": "name",
              "type": "string"
            },
            {
              "internalType": "string",
              "name": "desc",
              "type": "string"
            },
            {
              "internalType": "address",
              "name": "owner",
              "type": "address"
            },
            {
              "internalType": "string",
              "name": "url",
              "type": "string"
            },
            {
              "internalType": "uint8",
              "name": "bounty",
              "type": "uint8"
            }
          ],
          "internalType": "struct User.Course[]",
          "name": "",
          "type": "tuple[]"
        }
      ],
      "stateMutability": "view",
      "type": "function"
    },
    {
      "inputs": [
        {
          "internalType": "uint8",
          "name": "_courseId",
          "type": "uint8"
        }
      ],
      "name": "getCourseStatus",
      "outputs": [
        {
          "internalType": "string",
          "name": "courseStatus",
          "type": "string"
        }
      ],
      "stateMutability": "view",
      "type": "function"
    },
    {
      "inputs": [],
      "name": "getTopPerformers",
      "outputs": [
        {
          "components": [
            {
              "internalType": "address",
              "name": "_address",
              "type": "address"
            },
            {
              "internalType": "string",
              "name": "username",
              "type": "string"
            },
            {
              "internalType": "enum User.Access",
              "name": "access",
              "type": "uint8"
            },
            {
              "internalType": "uint8",
              "name": "_totalBounty",
              "type": "uint8"
            },
            {
              "internalType": "bool",
              "name": "_isActive",
              "type": "bool"
            }
          ],
          "internalType": "struct User.Employee[]",
          "name": "",
          "type": "tuple[]"
        }
      ],
      "stateMutability": "view",
      "type": "function"
    },
    {
      "inputs": [
        {
          "internalType": "address",
          "name": "_employeeAddress",
          "type": "address"
        }
      ],
      "name": "getTotalCourseBountyValue",
      "outputs": [
        {
          "internalType": "uint8",
          "name": "totalBountyValue",
          "type": "uint8"
        }
      ],
      "stateMutability": "view",
      "type": "function"
    },
    {
      "inputs": [
        {
          "internalType": "address",
          "name": "_address",
          "type": "address"
        }
      ],
      "name": "getUserName",
      "outputs": [
        {
          "internalType": "string",
          "name": "username",
          "type": "string"
        }
      ],
      "stateMutability": "view",
      "type": "function"
    },
    {
      "inputs": [
        {
          "internalType": "address",
          "name": "user",
          "type": "address"
        }
      ],
      "name": "getUserType",
      "outputs": [
        {
          "internalType": "uint256",
          "name": "",
          "type": "uint256"
        }
      ],
      "stateMutability": "view",
      "type": "function"
    }
  ],
  "bytecode": "0x608060405234801561001057600080fd5b506127a8806100206000396000f3fe608060405234801561001057600080fd5b50600436106100e6576000357c010000000000000000000000000000000000000000000000000000000090048063a502e8081161009e578063d84f55ee11610078578063d84f55ee146101ad578063f1518b97146101c0578063f403688a146101c857600080fd5b8063a502e80814610174578063c1166b2b14610187578063c95d75f01461019a57600080fd5b80635f1b1b60116100cf5780635f1b1b60146101295780638b3f863f1461013e5780639f412d9c1461015f57600080fd5b80630a67a48d146100eb578063553d9ee214610109575b600080fd5b6100f36101db565b6040516101009190612259565b60405180910390f35b61011c610117366004612333565b61046e565b6040516101009190612355565b610131610877565b6040516101009190612368565b61015161014c366004612468565b610c53565b604051908152602001610100565b61017261016d36600461253f565b610ccc565b005b6101726101823660046125d8565b610f65565b61011c610195366004612333565b611364565b6101726101a8366004612626565b6117c1565b61011c6101bb366004612468565b611917565b6101316119d0565b6101726101d6366004612468565b611c77565b3360009081526005602052604090205460609060ff16610282576040517f08c379a000000000000000000000000000000000000000000000000000000000815260206004820152602660248201527f4f6e6c7920616e20456d706c6f7965722063616e206d616b652074686973207260448201527f657175657374000000000000000000000000000000000000000000000000000060648201526084015b60405180910390fd5b3360009081526003602052604081205474010000000000000000000000000000000000000000900460ff16908167ffffffffffffffff8111156102c7576102c7612483565b60405190808252806020026020018201604052801561030057816020015b6102ed612106565b8152602001906001900390816102e55790505b50905060005b8260ff168160ff161015610467573360009081526004602052604081209061032f836001612692565b60ff1681526020808201929092526040908101600020815160608101909252805473ffffffffffffffffffffffffffffffffffffffff168252600181018054929391929184019161037f906126b7565b80601f01602080910402602001604051908101604052809291908181526020018280546103ab906126b7565b80156103f85780601f106103cd576101008083540402835291602001916103f8565b820191906000526020600020905b8154815290600101906020018083116103db57829003601f168201915b5050509183525050600282015460209091019060ff16600181111561041f5761041f61222a565b60018111156104305761043061222a565b81525050828260ff16815181106104495761044961270b565b6020026020010181905250808061045f9061273a565b915050610306565b5092915050565b336000908152600960209081526040808320805482518185028101850190935280835260609493849084015b828210156106c65760008481526020908190206040805160c0810190915260068502909101805460ff16825260018101805492939192918401916104dd906126b7565b80601f0160208091040260200160405190810160405280929190818152602001828054610509906126b7565b80156105565780601f1061052b57610100808354040283529160200191610556565b820191906000526020600020905b81548152906001019060200180831161053957829003601f168201915b5050505050815260200160028201805461056f906126b7565b80601f016020809104026020016040519081016040528092919081815260200182805461059b906126b7565b80156105e85780601f106105bd576101008083540402835291602001916105e8565b820191906000526020600020905b8154815290600101906020018083116105cb57829003601f168201915b5050509183525050600382015473ffffffffffffffffffffffffffffffffffffffff166020820152600482018054604090920191610625906126b7565b80601f0160208091040260200160405190810160405280929190818152602001828054610651906126b7565b801561069e5780601f106106735761010080835404028352916020019161069e565b820191906000526020600020905b81548152906001019060200180831161068157829003601f168201915b50505091835250506005919091015460ff16602091820152908252600192909201910161049a565b505050509050606060005b82518160ff16101561086f578460ff16838260ff16815181106106f6576106f661270b565b60200260200101516000015160ff16141561085d57336000908152600a6020526040812084518290869060ff86169081106107335761073361270b565b6020908102919091018101515160ff908116835290820192909252604001600090812054909116915081600281111561076e5761076e61222a565b14156107b1576040518060400160405280600b81526020017f4e4f545f53544152544544000000000000000000000000000000000000000000815250925061085b565b60018160028111156107c5576107c561222a565b1415610808576040518060400160405280600b81526020017f494e5f50524f4752455353000000000000000000000000000000000000000000815250925061085b565b600281600281111561081c5761081c61222a565b141561085b576040518060400160405280600981526020017f434f4d504c45544544000000000000000000000000000000000000000000000081525092505b505b806108678161273a565b9150506106d1565b509392505050565b336000908152600960209081526040808320805482518185028101850190935280835260609493849084015b82821015610acf5760008481526020908190206040805160c0810190915260068502909101805460ff16825260018101805492939192918401916108e6906126b7565b80601f0160208091040260200160405190810160405280929190818152602001828054610912906126b7565b801561095f5780601f106109345761010080835404028352916020019161095f565b820191906000526020600020905b81548152906001019060200180831161094257829003601f168201915b50505050508152602001600282018054610978906126b7565b80601f01602080910402602001604051908101604052809291908181526020018280546109a4906126b7565b80156109f15780601f106109c6576101008083540402835291602001916109f1565b820191906000526020600020905b8154815290600101906020018083116109d457829003601f168201915b5050509183525050600382015473ffffffffffffffffffffffffffffffffffffffff166020820152600482018054604090920191610a2e906126b7565b80601f0160208091040260200160405190810160405280929190818152602001828054610a5a906126b7565b8015610aa75780601f10610a7c57610100808354040283529160200191610aa7565b820191906000526020600020905b815481529060010190602001808311610a8a57829003601f168201915b50505091835250506005919091015460ff1660209182015290825260019290920191016108a3565b5050505090506000815167ffffffffffffffff811115610af157610af1612483565b604051908082528060200260200182016040528015610b7757816020015b610b646040518060c00160405280600060ff1681526020016060815260200160608152602001600073ffffffffffffffffffffffffffffffffffffffff16815260200160608152602001600060ff1681525090565b815260200190600190039081610b0f5790505b5090506000805b83518160ff161015610c4a57336000908152600a60205260408120855160029290879060ff8616908110610bb457610bb461270b565b6020908102919091018101515160ff90811683529082019290925260400160002054166002811115610be857610be861222a565b14610c3857838160ff1681518110610c0257610c0261270b565b6020026020010151838360ff1681518110610c1f57610c1f61270b565b6020908102919091010152610c35826001612692565b91505b80610c428161273a565b915050610b7e565b50909392505050565b73ffffffffffffffffffffffffffffffffffffffff811660009081526005602052604081205460ff1615610c8957506001919050565b73ffffffffffffffffffffffffffffffffffffffff821660009081526006602052604090205460ff1615610cbf57506002919050565b506003919050565b919050565b835115801590610cdc5750815115155b8015610cea575060ff811615155b610d76576040517f08c379a000000000000000000000000000000000000000000000000000000000815260206004820152603b60248201527f4572726f723a204d616e6461746f727920696e666f726d6174696f6e20636f7560448201527f727365206e616d652f75726c2f626f756e7479206d697373696e6700000000006064820152608401610279565b3360009081526005602052604090205460ff16610e15576040517f08c379a000000000000000000000000000000000000000000000000000000000815260206004820152603d60248201527f41636365737320526573747269637465643a20436f75727365732063616e206260448201527f652063726561746564206f6e6c7920627920616e20656d706c6f7965720000006064820152608401610279565b6040805160c0810182523360009081526008602052918220548190610e3b90600161275a565b60ff90811682526020808301899052604080840189905233606085018190526080850189905287841660a0909501949094526000938452600882528320805460018082018355918552938290208551600690950201805460ff19169490931693909317825583810151805194955085949293610ebf9390850192919091019061214d565b5060408201518051610edb91600284019160209091019061214d565b50606082015160038201805473ffffffffffffffffffffffffffffffffffffffff191673ffffffffffffffffffffffffffffffffffffffff90921691909117905560808201518051610f3791600484019160209091019061214d565b5060a091909101516005909101805460ff191660ff909216919091179055610f5e81611dc4565b5050505050565b3360009081526005602052604090205460ff16611004576040517f08c379a000000000000000000000000000000000000000000000000000000000815260206004820152602660248201527f4f6e6c7920616e20656d706c6f7965722063616e206d616b652074686973207260448201527f65717565737400000000000000000000000000000000000000000000000000006064820152608401610279565b73ffffffffffffffffffffffffffffffffffffffff821660009081526006602052604090205460ff16156110ba576040517f08c379a000000000000000000000000000000000000000000000000000000000815260206004820152603160248201527f456d706c6f79656520697320616c72656164792072656769737465726564207460448201527f6f20616e206f7267616e697a6174696f6e0000000000000000000000000000006064820152608401610279565b6040805160608101825273ffffffffffffffffffffffffffffffffffffffff8416815260208101839052600091810182905233600090815260036020526040812054919250906111269074010000000000000000000000000000000000000000900460ff166001612692565b336000818152600360209081526040808320805460ff871674010000000000000000000000000000000000000000027fffffffffffffffffffffff00ffffffffffffffffffffffffffffffffffffffff90911617905573ffffffffffffffffffffffffffffffffffffffff898116845260068352818420805460ff19166001908117909155848452828520805473ffffffffffffffffffffffffffffffffffffffff199081169097179055600284529190932087518154941693909416929092178355858101518051949550869461120593850192919091019061214d565b50604082015160028201805460ff1916600183818111156112285761122861222a565b02179055505033600090815260046020908152604080832060ff8616845282529091208451815473ffffffffffffffffffffffffffffffffffffffff191673ffffffffffffffffffffffffffffffffffffffff909116178155848201518051869450919261129e9260018501929091019061214d565b50604082015160028201805460ff1916600183818111156112c1576112c161222a565b0217905550505073ffffffffffffffffffffffffffffffffffffffff8416600090815260076020908152604090912084516112fe9286019061214d565b5061130884611ffc565b61135e57336000908152600160208181526040832080549283018155835290912001805473ffffffffffffffffffffffffffffffffffffffff191673ffffffffffffffffffffffffffffffffffffffff86161790555b50505050565b3360009081526006602052604090205460609060ff16611406576040517f08c379a000000000000000000000000000000000000000000000000000000000815260206004820152602660248201527f4f6e6c7920616e20656d706c6f7965652063616e206d616b652074686973207260448201527f65717565737400000000000000000000000000000000000000000000000000006064820152608401610279565b33600090815260096020908152604080832080548251818502810185019093528083529192909190849084015b8282101561165f5760008481526020908190206040805160c0810190915260068502909101805460ff1682526001810180549293919291840191611476906126b7565b80601f01602080910402602001604051908101604052809291908181526020018280546114a2906126b7565b80156114ef5780601f106114c4576101008083540402835291602001916114ef565b820191906000526020600020905b8154815290600101906020018083116114d257829003601f168201915b50505050508152602001600282018054611508906126b7565b80601f0160208091040260200160405190810160405280929190818152602001828054611534906126b7565b80156115815780601f1061155657610100808354040283529160200191611581565b820191906000526020600020905b81548152906001019060200180831161156457829003601f168201915b5050509183525050600382015473ffffffffffffffffffffffffffffffffffffffff1660208201526004820180546040909201916115be906126b7565b80601f01602080910402602001604051908101604052809291908181526020018280546115ea906126b7565b80156116375780601f1061160c57610100808354040283529160200191611637565b820191906000526020600020905b81548152906001019060200180831161161a57829003601f168201915b50505091835250506005919091015460ff166020918201529082526001929092019101611433565b50505050905060005b81518160ff1610156117aa578360ff16828260ff168151811061168d5761168d61270b565b60200260200101516000015160ff161480156117025750336000908152600a6020526040812083518290859060ff86169081106116cc576116cc61270b565b6020908102919091018101515160ff908116835290820192909252604001600020541660028111156117005761170061222a565b145b1561179857336000908152600a60205260408120835160029290859060ff86169081106117315761173161270b565b6020908102919091018101515160ff168252810191909152604001600020805460ff191660018360028111156117695761176961222a565b0217905550818160ff16815181106117835761178361270b565b60200260200101516080015192505050919050565b806117a28161273a565b915050611668565b505060408051602081019091526000815292915050565b3360009081526005602052604090205460ff1615611861576040517f08c379a000000000000000000000000000000000000000000000000000000000815260206004820152602960248201527f596f752061726520616c7265616479207265676973746572656420617320616e60448201527f20456d706c6f79657200000000000000000000000000000000000000000000006064820152608401610279565b60408051808201825233808252600060208084018281529282526003815284822084518154945160ff1674010000000000000000000000000000000000000000027fffffffffffffffffffffff00000000000000000000000000000000000000000090951673ffffffffffffffffffffffffffffffffffffffff91909116179390931790925560058252838120805460ff19166001179055600782529290922083519192611912929085019061214d565b505050565b73ffffffffffffffffffffffffffffffffffffffff8116600090815260076020526040902080546060919061194b906126b7565b80601f0160208091040260200160405190810160405280929190818152602001828054611977906126b7565b80156119c45780601f10611999576101008083540402835291602001916119c4565b820191906000526020600020905b8154815290600101906020018083116119a757829003601f168201915b50505050509050919050565b33600090815260056020526040902054606090819060ff1615611c4d5733600090815260086020908152604080832080548251818502810185019093528083529193909284015b82821015611c435760008481526020908190206040805160c0810190915260068502909101805460ff1682526001810180549293919291840191611a5a906126b7565b80601f0160208091040260200160405190810160405280929190818152602001828054611a86906126b7565b8015611ad35780601f10611aa857610100808354040283529160200191611ad3565b820191906000526020600020905b815481529060010190602001808311611ab657829003601f168201915b50505050508152602001600282018054611aec906126b7565b80601f0160208091040260200160405190810160405280929190818152602001828054611b18906126b7565b8015611b655780601f10611b3a57610100808354040283529160200191611b65565b820191906000526020600020905b815481529060010190602001808311611b4857829003601f168201915b5050509183525050600382015473ffffffffffffffffffffffffffffffffffffffff166020820152600482018054604090920191611ba2906126b7565b80601f0160208091040260200160405190810160405280929190818152602001828054611bce906126b7565b8015611c1b5780601f10611bf057610100808354040283529160200191611c1b565b820191906000526020600020905b815481529060010190602001808311611bfe57829003601f168201915b50505091835250506005919091015460ff166020918201529082526001929092019101611a17565b5050505091505090565b3360009081526006602052604090205460ff1615610cc757611c6d610877565b91505090565b5090565b3360009081526005602052604090205460ff16611d16576040517f08c379a000000000000000000000000000000000000000000000000000000000815260206004820152602660248201527f4f6e6c7920616e20656d706c6f7965722063616e206d616b652074686973207260448201527f65717565737400000000000000000000000000000000000000000000000000006064820152608401610279565b73ffffffffffffffffffffffffffffffffffffffff811660009081526002602081905260408220015460ff1690816001811115611d5557611d5561222a565b1415611d91575073ffffffffffffffffffffffffffffffffffffffff16600090815260026020819052604090912001805460ff19166001179055565b5073ffffffffffffffffffffffffffffffffffffffff16600090815260026020819052604090912001805460ff19169055565b33600090815260016020908152604080832080548251818502810185019093528083529192909190830182828015611e3257602002820191906000526020600020905b815473ffffffffffffffffffffffffffffffffffffffff168152600190910190602001808311611e07575b5050505050905060005b81518160ff1610156119125760096000838360ff1681518110611e6157611e6161270b565b60209081029190910181015173ffffffffffffffffffffffffffffffffffffffff168252818101929092526040016000908120805460018082018355918352918390208651600690930201805460ff191660ff9093169290921782558583015180518794611ed393850192019061214d565b5060408201518051611eef91600284019160209091019061214d565b50606082015160038201805473ffffffffffffffffffffffffffffffffffffffff191673ffffffffffffffffffffffffffffffffffffffff90921691909117905560808201518051611f4b91600484019160209091019061214d565b5060a08201518160050160006101000a81548160ff021916908360ff16021790555050506000600a6000848460ff1681518110611f8a57611f8a61270b565b60209081029190910181015173ffffffffffffffffffffffffffffffffffffffff1682528181019290925260409081016000908120875160ff1682529092529020805460ff19166001836002811115611fe557611fe561222a565b021790555080611ff48161273a565b915050611e3c565b3360009081526001602090815260408083208054825181850281018501909352808352849383018282801561206757602002820191906000526020600020905b815473ffffffffffffffffffffffffffffffffffffffff16815260019091019060200180831161203c575b505050505090508051600014156120815750600092915050565b60005b81518160ff1610156120fc578373ffffffffffffffffffffffffffffffffffffffff16828260ff16815181106120bc576120bc61270b565b602002602001015173ffffffffffffffffffffffffffffffffffffffff1614156120ea575060019392505050565b806120f48161273a565b915050612084565b5060009392505050565b6040518060600160405280600073ffffffffffffffffffffffffffffffffffffffff16815260200160608152602001600060018111156121485761214861222a565b905290565b828054612159906126b7565b90600052602060002090601f01602090048101928261217b57600085556121c1565b82601f1061219457805160ff19168380011785556121c1565b828001600101855582156121c1579182015b828111156121c15782518255916020019190600101906121a6565b50611c739291505b80821115611c7357600081556001016121c9565b6000815180845260005b81811015612203576020818501810151868301820152016121e7565b81811115612215576000602083870101525b50601f01601f19169290920160200192915050565b7f4e487b7100000000000000000000000000000000000000000000000000000000600052602160045260246000fd5b6020808252825182820181905260009190604090818501908084028601830187850186805b8481101561231357603f198a85030186528251606073ffffffffffffffffffffffffffffffffffffffff825116865289820151818b8801526122c2828801826121dd565b928a015192915050600282106122ff577f4e487b710000000000000000000000000000000000000000000000000000000084526021600452602484fd5b94880152948701949187019160010161227e565b50919998505050505050505050565b803560ff81168114610cc757600080fd5b60006020828403121561234557600080fd5b61234e82612322565b9392505050565b60208152600061234e60208301846121dd565b60208082528251828201819052600091906040908185019080840286018301878501865b8381101561243657603f19898403018552815160c060ff80835116865289830151828b8801526123be838801826121dd565b925050888301518683038a8801526123d683826121dd565b925050606073ffffffffffffffffffffffffffffffffffffffff818501511681880152506080808401518784038289015261241184826121dd565b60a095860151909316979094019690965296890196945050509086019060010161238c565b509098975050505050505050565b803573ffffffffffffffffffffffffffffffffffffffff81168114610cc757600080fd5b60006020828403121561247a57600080fd5b61234e82612444565b7f4e487b7100000000000000000000000000000000000000000000000000000000600052604160045260246000fd5b600082601f8301126124c357600080fd5b813567ffffffffffffffff808211156124de576124de612483565b604051601f8301601f19908116603f0116810190828211818310171561250657612506612483565b8160405283815286602085880101111561251f57600080fd5b836020870160208301376000602085830101528094505050505092915050565b6000806000806080858703121561255557600080fd5b843567ffffffffffffffff8082111561256d57600080fd5b612579888389016124b2565b9550602087013591508082111561258f57600080fd5b61259b888389016124b2565b945060408701359150808211156125b157600080fd5b506125be878288016124b2565b9250506125cd60608601612322565b905092959194509250565b600080604083850312156125eb57600080fd5b6125f483612444565b9150602083013567ffffffffffffffff81111561261057600080fd5b61261c858286016124b2565b9150509250929050565b60006020828403121561263857600080fd5b813567ffffffffffffffff81111561264f57600080fd5b61265b848285016124b2565b949350505050565b7f4e487b7100000000000000000000000000000000000000000000000000000000600052601160045260246000fd5b600060ff821660ff84168060ff038211156126af576126af612663565b019392505050565b6002810460018216806126cb57607f821691505b60208210811415612705577f4e487b7100000000000000000000000000000000000000000000000000000000600052602260045260246000fd5b50919050565b7f4e487b7100000000000000000000000000000000000000000000000000000000600052603260045260246000fd5b600060ff821660ff81141561275157612751612663565b60010192915050565b6000821982111561276d5761276d612663565b50019056fea26469706673582212202d8a2d03112042b24276dc35cc446380397b9cd91977ab915f277369a075d12c64736f6c634300080a0033",
  "immutableReferences": {},
  "source": "// SPDX-License-Identifier: MIT OR Apache-2.0\npragma solidity ^0.8.0;\n\ninterface IERC20 {\n    function transfer(address recipient, uint256 amount)\n        external\n        returns (bool);\n}\n\ncontract User {\n    // Employee address => employerAddress\n    // Used when creating a new employee\n    mapping(address => address) private employee_Employer;\n\n    // Employer-Employees mapping\n    mapping(address => address[]) private employer_Employees;\n\n    // Employee address => Employee Struct\n    // Used when creating a new Employee\n    mapping(address => Employee) private employee_AccountDetails;\n\n    // Organization employerAddress => Organization\n    // Used when creating an Organization\n    mapping(address => Organization) private employer_Organization;\n\n    // Employer address => employeeId => employeeAddress\n    // Used when creating a new Employer\n    // mapping(address => mapping(uint8 => address)) private member_Organization;\n    mapping(address => mapping(uint8 => Employee)) private member_Organization;\n\n    // Employer address => bool\n    mapping(address => bool) private isEmployer;\n\n    // Employee address => bool\n    mapping(address => bool) private isEmployee;\n\n    // User address => username\n    mapping(address => string) private users;\n\n    // Courses employer creates\n    mapping(address => Course[]) private employerCourses;\n\n    // Courses employee subscribed to\n    mapping(address => Course[]) private employeeCourses;\n\n    // Status of courses employee had subscribed to\n    mapping(address => mapping(uint8 => EmployeeCourseStatus)) private employeeCourseStatus;\n\n    /**\n     * Course details\n     */\n    struct Course {\n        uint8 id; \n        string name; \n        string desc;\n        address owner; \n        string url;\n        uint8 bounty;\n    }\n\n    // TODO Add course, delete course functions\n    // TODO Check for change in course status, emit an event on course completion that initiates streaming from employer to employee\n    // TODO Function to get all the learning courses added by employer\n    // TODO Employee address => List of courses enrolled and completed\n\n    enum Access {\n        Locked, // Locked by employer. Can't be unlocked by employee. No access to widrawal of funds.\n        Unlocked // Unlocked by employer. Can't be unlocked by employee. No access to widrawal of funds.\n    }\n\n    /**\n    * Employee course status\n    */\n    enum EmployeeCourseStatus {\n        NOT_STARTED,\n        IN_PROGRESS,\n        COMPLETED\n    }\n\n    struct Employee {\n        address _address; // the address of the employee\n        string username; // an identifier for the employee\n        Access access; // locked(0) or unlocked(1)\n    }\n\n    struct Organization {\n        address payable owner; // the owner of the Organization\n        // mapping(address => Employee) employee; // the employees of the organization\n        uint8 numOfEmployees; // The number of employees in the organization\n    }\n\n    /** \n     * @notice - This function is used to retrieve the username based on wallet address\n     * @param _address - The address of the user.\n     */\n    function getUserName(address _address) external view returns(string memory username){\n        return users[_address];\n    }\n\n    /**\n     * @notice - Creates course\n     *\n     * @param _name - name of the course\n     * @param _desc - description of the course\n     * @param _url - url of the course\n     * @param _bounty - bounty for the course\n     */\n    function createCourse(string memory _name, string memory _desc, \n        string memory _url, uint8 _bounty) public {\n        require(\n            (bytes(_name).length != 0 && bytes(_url).length != 0 && _bounty != 0), \n        \"Error: Mandatory information course name/url/bounty missing\"\n        );\n\n        require(\n            isEmployer[msg.sender],\n            \"Access Restricted: Courses can be created only by an employer\"\n        );\n\n        Course memory course = Course({\n            id: uint8(employerCourses[msg.sender].length + 1),\n            name: _name,\n            desc: _desc,\n            owner: msg.sender,\n            url: _url,\n            bounty: _bounty\n        });\n        employerCourses[msg.sender].push(course);\n        subscribeCourse(course);\n    }\n\n    /**\n     * @notice - Fetch course list based on user type\n     *\n     * @return courseList - list of courses  \n     */\n    function fetchCourses() view public returns (Course[] memory courseList) {\n        Course[] memory courses;\n        if (isEmployer[msg.sender]) { //Employer\n            return employerCourses[msg.sender];\n        } else if (isEmployee[msg.sender]) { //Employee\n            return fetchIncompleteCourses();\n        } else {\n            return courses;\n        }\n    }\n\n\n    /**\n     * @notice - Fetch incompleted course list\n     *\n     * @return courseList - list of courses  \n     */\n    function fetchIncompleteCourses() view public returns (Course[] memory) {\n        Course[] memory coursesList = employeeCourses[msg.sender];\n        Course[] memory incompletedList = new Course[](coursesList.length);\n        uint8 counter = 0;\n        for (uint8 i = 0; i < coursesList.length; i++) {\n            if(employeeCourseStatus[msg.sender][coursesList[i].id] != EmployeeCourseStatus.COMPLETED) {\n                incompletedList[counter] = coursesList[i];\n                counter = counter + 1;\n            }\n        }\n        return incompletedList;\n    }\n\n\n    /**\n     * @notice - Subscribe course\n     *\n     * @param _course - course\n     */\n    function subscribeCourse(Course memory _course) private {\n        address[] memory employees = employer_Employees[msg.sender];\n\n        // All newly added courses are subscribed to all employers by default\n        for (uint8 i = 0; i < employees.length; i++) {\n            employeeCourses[employees[i]].push(_course);\n            employeeCourseStatus[employees[i]][_course.id] = EmployeeCourseStatus.NOT_STARTED;\n        }\n    }\n\n\n    /**\n     * @notice - Complete course\n     *\n     * @param _courseId - course ID\n     * @return courseUrl - course URL\n     */\n    function completeCourse(uint8 _courseId) public returns (string memory courseUrl) {\n        require(isEmployee[msg.sender], \"Only an employee can make this request\");\n\n        Course[] memory allCourses = employeeCourses[msg.sender];\n        for (uint8 i = 0; i < allCourses.length; i++) {\n            if (allCourses[i].id == _courseId && employeeCourseStatus[msg.sender][allCourses[i].id] == EmployeeCourseStatus.NOT_STARTED) {\n                employeeCourseStatus[msg.sender][allCourses[i].id] = EmployeeCourseStatus.COMPLETED;\n                return allCourses[i].url;\n            }\n        }\n        return \"\";\n    }\n\n    /**\n     * @notice - Get course status\n     *\n     * @param _courseId - course ID\n     * @return courseStatus - course status\n     */\n    function getCourseStatus(uint8 _courseId) public view returns (string memory courseStatus) {\n        Course[] memory allCourses = employeeCourses[msg.sender];\n        string memory status;\n        for (uint8 i = 0; i < allCourses.length; i++) {\n            if (allCourses[i].id == _courseId) {\n                EmployeeCourseStatus cStatus = employeeCourseStatus[msg.sender][allCourses[i].id];\n                    if (cStatus == EmployeeCourseStatus.NOT_STARTED) {\n                        status = \"NOT_STARTED\";\n                    } else if (cStatus == EmployeeCourseStatus.IN_PROGRESS) {\n                        status = \"IN_PROGRESS\";\n                    } else if (cStatus == EmployeeCourseStatus.COMPLETED) {\n                        status = \"COMPLETED\";\n                    }\n            }\n        }\n        return status;\n    }\n    \n\n    /** \n     * @notice - This function is used to determine the type of user\n     * 1 = employer. 2 = employee. 3 = unenrolled\n     * @param user - The address of the user.\n     */\n    function getUserType(address user) external view returns(uint256){\n        if(isEmployer[user]){\n            return 1;\n        }else if (isEmployee[user]){\n            return 2;\n        }else{\n            return 3;\n        }\n    }\n\n    /**\n     * @notice - This function is used to determine if the user is an employee of an organization.\n     */\n    function fetchEmployees() public view returns (Employee[] memory) {\n        require(isEmployer[msg.sender], \"Only an Employer can make this request\");\n\n        //determine how many employees the employer has\n        uint8 numOfEmployees = employer_Organization[msg.sender].numOfEmployees;\n        Employee[] memory employees = new Employee[](numOfEmployees);\n        for (uint8 index = 0; index < numOfEmployees; index++) {\n            employees[index] = member_Organization[msg.sender][index + 1];\n        }\n        return employees;\n    }\n\n    /**\n     * @notice - This function is used to create a new employer/owner\n     */\n    function createEmployer(string memory username) public {\n        require(\n            !isEmployer[msg.sender],\n            \"You are already registered as an Employer\"\n        );\n\n        // create a new organization\n        Organization memory organization = Organization({\n            owner: payable(msg.sender),\n            numOfEmployees: 0\n        });\n        employer_Organization[msg.sender] = organization;\n        isEmployer[msg.sender] = true;\n        users[msg.sender]=username;\n    }\n\n    /**\n     * @notice - This function is used to add a employee to the organization owned by an employer.\n     * @param _employeeAddress - The address of the employee.\n     * @param _employeeName - The username of the employee.\n     */\n    function addEmployee(address _employeeAddress, string memory _employeeName) public {\n        require(isEmployer[msg.sender], \"Only an employer can make this request\");\n        require(!isEmployee[_employeeAddress], \"Employee is already registered to an organization\");\n        // Fetch the employee\n        Employee memory employee = Employee({\n            _address: _employeeAddress,\n            username: _employeeName,\n            access: Access.Locked\n        });\n\n        // get next id number for the employee\n        uint8 employeeId = employer_Organization[msg.sender].numOfEmployees + 1;\n\n        // update employee count\n        employer_Organization[msg.sender].numOfEmployees = employeeId;\n\n        // update mappings\n        isEmployee[_employeeAddress] = true;\n        employee_Employer[_employeeAddress] = msg.sender;\n        employee_AccountDetails[_employeeAddress] = employee;\n        member_Organization[msg.sender][employeeId] = employee;\n        users[_employeeAddress]=_employeeName;\n\n        // Update employer-employees mapping\n        if (!isEmployeeAlreadyExist(_employeeAddress)) {\n            employer_Employees[msg.sender].push(_employeeAddress);\n        } \n    }\n\n    /**\n     * @notice - Check if employee address already exist for the employer\n     *\n     * @param _employeeAddress - address of the employee\n     * @return - flag indicating if employee already present \n     */\n    function isEmployeeAlreadyExist(address _employeeAddress) private view returns(bool) {\n        address[] memory employees = employer_Employees[msg.sender];\n\n        if (employees.length == 0) { return false; }\n        for (uint8 i = 0; i < employees.length; i++) {\n            if (employees[i] == _employeeAddress) { return true; }\n        }\n        return false;\n    }\n\n    /**\n     * @notice - This function is used to change the access of an employee.\n     * @param _employeeAddress - The address of the employee.\n     */\n    function changeAccess(address _employeeAddress) public {\n        require(isEmployer[msg.sender], \"Only an employer can make this request\");\n\n        // current status\n        Access currentAccess = employee_AccountDetails[_employeeAddress].access;\n\n        // change the access of the employee\n        if (currentAccess == Access.Locked) {\n            employee_AccountDetails[_employeeAddress].access = Access.Unlocked;\n        } else {\n            employee_AccountDetails[_employeeAddress].access = Access.Locked;\n        }\n    }\n\n    \n}\n",
  "sourcePath": "/mnt/c/blockchainrepo/kalvi-core/contracts/User.sol",
  "compiler": {
    "name": "solc",
    "version": "0.8.10+commit.fc410830.Emscripten.clang"
  },
  "schemaVersion": "3.4.4",
  "updatedAt": "2022-04-02T16:47:44.135Z",
  "networkType": "ethereum",
  "devdoc": {
    "kind": "dev",
    "methods": {
      "addEmployee(address,string)": {
        "params": {
          "_employeeAddress": "- The address of the employee.",
          "_employeeName": "- The username of the employee."
        }
      },
      "changeAccess(address)": {
        "params": {
          "_employeeAddress": "- The address of the employee."
        }
      },
      "completeCourse(uint8)": {
        "params": {
          "_courseId": "- course ID"
        },
        "returns": {
          "courseUrl": "- course URL"
        }
      },
      "createCourse(string,string,string,uint8)": {
        "params": {
          "_bounty": "- bounty for the course",
          "_desc": "- description of the course",
          "_name": "- name of the course",
          "_url": "- url of the course"
        }
      },
      "fetchCourses()": {
        "returns": {
          "courseList": "- list of courses  "
        }
      },
      "fetchIncompleteCourses()": {
        "returns": {
          "_0": "courseList - list of courses  "
        }
      },
      "getCourseStatus(uint8)": {
        "params": {
          "_courseId": "- course ID"
        },
        "returns": {
          "courseStatus": "- course status"
        }
      },
      "getUserName(address)": {
        "params": {
          "_address": "- The address of the user."
        }
      },
      "getUserType(address)": {
        "params": {
          "user": "- The address of the user."
        }
      }
    },
    "version": 1
  },
  "userdoc": {
    "kind": "user",
    "methods": {
      "addEmployee(address,string)": {
        "notice": "- This function is used to add a employee to the organization owned by an employer."
      },
      "changeAccess(address)": {
        "notice": "- This function is used to change the access of an employee."
      },
      "completeCourse(uint8)": {
        "notice": "- Complete course"
      },
      "createCourse(string,string,string,uint8)": {
        "notice": "- Creates course"
      },
      "createEmployer(string)": {
        "notice": "- This function is used to create a new employer/owner"
      },
      "fetchCourses()": {
        "notice": "- Fetch course list based on user type"
      },
      "fetchEmployees()": {
        "notice": "- This function is used to determine if the user is an employee of an organization."
      },
      "fetchIncompleteCourses()": {
        "notice": "- Fetch incompleted course list"
      },
      "getCourseStatus(uint8)": {
        "notice": "- Get course status"
      },
      "getUserName(address)": {
        "notice": "- This function is used to retrieve the username based on wallet address"
      },
      "getUserType(address)": {
        "notice": "- This function is used to determine the type of user 1 = employer. 2 = employee. 3 = unenrolled"
      }
    },
    "version": 1
  }
}